:100000006F00C0006F0000006F00C0029702000088
:10001000938282027390523073500030735040309C
:10002000970100209381017E17110020130181099F
:100030006F000013130101F8232011002322210077
:10004000232431002326410023285100232A610064
:10005000232C7100232E8100232091022322A10250
:100060002324B1022326C1022328D102232AE1023C
:10007000232CF102232E0103232011052322210525
:10008000232431052326410523285105232A610510
:10009000232C7105232E8105232091072322A107FC
:1000A0002324B1072326C1072328D107232AE107E8
:1000B000232CF107F3221034232E5106732520340C
:1000C000F325103413060100EF00801D7310153462
:1000D000B72200009382028073A0023083200100C7
:1000E00003214100832181000322C10083220101F9
:1000F00003234101832381010324C10183240102DD
:1001000003254102832581020326C10283260103C0
:1001100003274103832781030328C10383280104A4
:100120000329410483298104032AC104832A010588
:10013000032B4105832B8105032CC105832C01066C
:10014000032D4106832D8106032EC106832E010750
:10015000032F4107832F810713010108730020300B
:10016000B7170060130101FE938707D12322F10026
:1001700037170060B7070080232E110023240100E9
:100180002326010093870700130707DC938601816C
:1001900063F4F6043717006093870181130707DDC6
:1001A0009386018963F4F604938701891387018A92
:1001B0006378F7049387018A1387018C6378F704C7
:1001C0009305410013051000EF00101B8320C101AF
:1001D0001301010267800000032607009387470090
:1001E0001307470023AEC7FE6FF09FFA03260700F0
:1001F000938747001307470023AEC7FE6FF09FFAAF
:1002000023A00700938747006FF09FFA23A0070001
:10021000938747006FF09FFA67800000130101FF8A
:100220009305400623261100EF0050239387018990
:1002300023A0A70023A2070063000506F32740F1CF
:1002400037C70044032887FF8328C7FF330705010A
:100250003335A70013060700371700001307078080
:10026000B387E7009397370037070044B307F700D9
:1002700023A0C700B306150123A2D70093070008E7
:10028000F3A74730F3670430130500008320C10053
:100290001301010167800000130510006FF01FFFBC
:1002A000130101FF23229100232611002324810042
:1002B0002320210193840500635A0512B7070080AB
:1002C00093C7F7FF3375F5009307B000631EF50879
:1002D000F32740F193870720370400409397C70026
:1002E000B307F40003A9470093870181131729007E
:1002F000B387E70083A70700E7800700F32740F1F3
:10030000938707209397C700B307F40023A2270120
:1003100093071000631CF502F32740F193975700F1
:1003200013575900B387E700939727003304F4006D
:10033000B72700003304F400832704003315250198
:100340001345F5FF3375F5002320A4008320C10079
:100350000324810013850400032901008324410044
:100360001301010167800000930770006314F50614
:1003700013040008F3374430EF00C07AB7C70044D5
:1003800003A887FF83A8C7FFF32740F1938601895D
:1003900003A7060083A546003307E80033350701AD
:1003A000130607003717000013070780B387E7001D
:1003B0009397370037070044B307F700B385B800B9
:1003C000B306B50023A0C70023A2D700732444308E
:1003D0006FF0DFF793073000631AF500EF00C002FB
:1003E000B707004423A007006FF05FF6F3274034FF
:1003F000F3273034F3275030F3270034F32700304D
:10040000730010006FF09FF4130101FF1305A000AB
:1004100023261100EF004010130500006780000044
:1004200013050000678000001305000067800000CE
:1004300013050000678000001305000067800000BE
:1004400013050000678000001305000067800000AE
:10045000130500006780000013050000678000009E
:10046000130500006780000013050000678000008E
:10047000130500006780000013050000678000007E
:10048000130500006780000013050000678000006E
:10049000130500006780000013050000678000005E
:1004A000130500006780000013050000678000004E
:1004B000130500006780000013050000678000003E
:1004C000130500006780000013050000678000002E
:1004D000130500006780000013050000678000001E
:1004E000130500006780000013050000678000000E
:1004F00013050000678000001305000067800000FE
:1005000013050000678000001305000067800000ED
:1005100013050000678000006F0000002320B50075
:10052000678000000325050067800000138E060029
:10053000331EBE00337ECE00032305009303060066
:1005400093C3F3FF337373003363C3012320650048
:1005500067800000032505003375C5003355B500DD
:10056000678000002310B5006780000003150500B8
:1005700067800000138E0600331EBE00337ECE005F
:10058000031305009303060093C3F3FF3373730053
:100590003363C30123106500678000000315050065
:1005A0003375C5003355B500678000002300B500E2
:1005B000678000000305050067800000138E0600B9
:1005C000331EBE00337ECE000303050093030600F6
:1005D00093C3F3FF337373003363C30123006500D8
:1005E00067800000030505003375C5003355B5006D
:1005F000678000006304050A9307700063E0D70A70
:10060000B7270000637CF608130101FE232C81004C
:10061000232821011304060013890500232A9100D1
:100620009375F60F93040500135454401305890085
:10063000232E1100232631011374847F9389060031
:10064000EFF0DFF61305C900B3653401EFF01FF6D4
:100650001305090123A02401EFF0DFF51375250030
:1006600063120502238204008320C1010324810157
:1006700083244101032901018329C10013010102DF
:100680006780000003A5040013054500EFF09FF20A
:1006900003A50400130505016FF01FFC678000002F
:1006A000630805066386050663040606130101FF59
:1006B00023248100232291002320210123261100DD
:1006C0001309050013840500B384C500631E94005C
:1006D0008320C100032481008324410003290100F9
:1006E00013010101678000000325090013050501BE
:1006F000EFF05FEC13751500E30805FE8345040079
:100700000325090013041400EFF05FEA6FF01FFCEB
:1007100067800000630A050A130101FE232C810093
:10072000232E1100232A91002328210123263101A1
:10073000130405001305000063800504630E060220
:100740000325040013890500930406001305050121
:10075000EFF05FE683474400B30499009309090072
:10076000B367F5002302F400937725003385294110
:1007700063840700639099028320C10103248101EF
:1007800083244101032901018329C10013010102CE
:1007900067800000032504009389190013054500B4
:1007A000EFF05FE1A38FA9FE032504001305050107
:1007B000EFF05FE083474400B367F5002302F400E5
:1007C000937725006FF09FFA130500006780000003
:1007D0006302050663800506130101FF23248100DF
:1007E00023229100232611009304050013840500A1
:1007F00083470400639C07008320C1000324810019
:1008000083244100130101016780000003A5040057
:1008100013050501EFF01FDA13751500E30805FE57
:100820008345040003A5040013041400EFF01FD84F
:100830006FF01FFC67800000130101FF232481007B
:1008400023229100232021012326110013040500F7
:100850002320B400938405002322C50013890508D2
:10086000138504009305000093844400EFF01FD427
:10087000E39824FF8327440013071000638AE702EC
:100880006384070613072000639AE70A0325040020
:10089000032481008320C100832441000329010037
:1008A0009305F0FF13050508130101016FF01FC741
:1008B00003250400B70401009385F4FF1305050820
:1008C000EFF05FCA03250400032481008320C100E8
:1008D000032901009385F4FF832441001305450893
:1008E000130101016FF01FC8032504009305F00FE9
:1008F00013050508EFF09FCB032504009305F00FC7
:1009000013054508EFF09FCA032504009305F00F77
:1009100013058508EFF09FC9032504000324810017
:100920008320C10083244100032901009305F00FB7
:100930001305C508130101016FF05FC78320C100D3
:1009400003248100832441000329010013010101D4
:100950006780000083274500130101FF23248100E5
:100960002322910023261100130710001304050011
:10097000938405006386E702638E07041307200053
:100980006396E70A03250500032481008320C10044
:10099000832441001305050A130101016FF01FB8FC
:1009A000032505009395050193D505011305050A57
:1009B000EFF05FBB03250400032481008320C10006
:1009C00093D50401832441001305450A1301010155
:1009D0006FF05FB90325050093F5F50F1305050AC0
:1009E000EFF0DFBC0325040093D5840093F5F50FE9
:1009F0001305450AEFF09FBB0325040093D50401BE
:100A000093F5F50F1305850AEFF05FBA032504008F
:100A1000032481008320C10093D5840183244100F5
:100A20001305C50A130101016FF05FB88320C100EF
:100A30000324810083244100130101016780000029
:100A400083274500130101FF232481002326110081
:100A50002322910023202101130710001304050015
:100A60006388E70263840706130720006398E70A98
:100A700003250500032481008320C1008324410055
:100A80000329010013050509130101016FF09FA956
:100A90000325050013050509EFF05FAD930405007C
:100AA0000325040013054509EFF05FAC131505019C
:100AB000336595008320C100032481008324410015
:100AC00003290100130101016780000003250500CF
:100AD00013050509EFF01FAE93040500032504007C
:100AE00013054509EFF01FAD1309050003250400A8
:100AF0001319890013058509EFF0DFAB1315050104
:100B00003369A90003250400B36499001305C509DE
:100B1000EFF05FAA131585016FF09FF91305000030
:100B20006FF05FF9130101FF1385818A23261100FD
:100B3000EFF01FF1B707008003A747001345F5FF4B
:100B400093064000131717001375050F938747008E
:100B500063E0E60223A0E70083A507008320C1002D
:100B6000B365B5001385018A130101016FF09FDEA3
:100B7000130710006FF01FFE130101FE232E11005A
:100B8000232C8100F32740F1138707049316770085
:100B9000370700403307D7002320070093060000E3
:100BA000370700409305F001139626003306C7006F
:100BB0002320060093861600E398B6FE938707204D
:100BC0009397C700B307F70023A00700B7170000EB
:100BD00093870780F3A7473013062000B7250070DE
:100BE0001385818AEFF05FC513062000B7550070AA
:100BF0001385018AEFF05FC4930610001306A0016D
:100C0000B71500701385018BEFF0DF9EB7070080EA
:100C100083A507001385018BEFF09FBB37F5FA0220
:100C200013050508EFF08FDF130610009305F100A0
:100C30001385018BEFF01FAE1375F50FE30605FE6C
:100C4000130610009305F1001385018BEFF05FA5EB
:100C50006FF09FFD6340050663C605061386050019
:100C6000930505001305F0FF630C060293061000C0
:100C7000637AB6006358C0001316160093961600E8
:100C8000E36AB6FE1305000063E6C500B385C54000
:100C90003365D50093D6160013561600E39606FE6C
:100CA0006780000093820000EFF05FFB1385050072
:100CB000678002003305A04063D80500B305B0404B
:100CC0006FF0DFF9B305B04093820000EFF01FF939
:100CD0003305A040678002009382000063CA0500CC
:100CE000634C0500EFF09FF7138505006780020055
:100CF000B305B040E35805FE3305A040EFF01FF602
:100D00003305B040678002000000000000000000D2
:100D100068656C6C6F0000000D0A202020202020E8
:100D2000202020202053797374656D2074696D65CF
:100D30007220426C696E6B79204578616D706C65CC
:100D40002020202020202020200A0D0A0D4F627331
:100D50006572766520746865204C45447320626C2A
:100D6000696E6B696E67206F6E2074686520626FB4
:100D70006172642E20546865204C45442070617473
:100D80007465726E206368616E6765732065766551
:100D900072792074696D6520612073797374656D53
:100DA0002074696D657220696E74657272757074F5
:100DB000206F63637572730D0A000000000000006D
:100DC000180D00600100000000000000000000009D
:100DD00018040060200400602804006030040060F3
:100DE0003804006040040060480400605004006063
:100DF00058040060600400606804006070040060D3
:100E00007804006080040060880400609004006042
:100E100098040060A0040060A8040060B0040060B2
:100E2000B8040060C0040060C8040060D004006022
:100E3000D8040060E0040060E8040060F004006092
:100E4000F8040060000500600805006010050060FF
:040000056000000097
:00000001FF
