:100000006F00C0006F0000006F00C0029702000088
:10001000938282027390523073500030735040309C
:1000200097610000938101AA1761000013018139D3
:100030006F00001E130101F823201100232221006C
:10004000232431002326410023285100232A610064
:10005000232C7100232E8100232091022322A10250
:100060002324B1022326C1022328D102232AE1023C
:10007000232CF102232E0103232011052322210525
:10008000232431052326410523285105232A610510
:10009000232C7105232E8105232091072322A107FC
:1000A0002324B1072326C1072328D107232AE107E8
:1000B000232CF107F3221034232E5106732520340C
:1000C000F325103413060100EF00004973101534B6
:1000D000B72200009382028073A0023083200100C7
:1000E00003214100832181000322C10083220101F9
:1000F00003234101832381010324C10183240102DD
:1001000003254102832581020326C10283260103C0
:1001100003274103832781030328C10383280104A4
:100120000329410483298104032AC104832A010588
:10013000032B4105832B8105032CC105832C01066C
:10014000032D4106832D8106032EC106832E010750
:10015000032F4107832F810713010108730020300B
:10016000130101FE232E8100130401022326A4FEA5
:100170002324B4FE2322C4FE6F00C0028327C4FEE2
:1001800003A70700832784FE23A0E7008327C4FE7C
:10019000938747002326F4FE832784FE9387470036
:1001A0002324F4FE032784FE832744FEE3F8E7FCC0
:1001B000130000000324C101130101026780000045
:1001C000130101FD2326810213040103232EA4FC45
:1001D000232CB4FC8327C4FD2326F4FE6F0080018A
:1001E0008327C4FE23A007008327C4FE938747000C
:1001F0002326F4FE0327C4FE832784FDE3F2E7FEF3
:10020000130000000324C1021301010367800000F2
:10021000130101FE232E1100232C8100130401027F
:10022000B75700809387072A2326F4FE8327C4FE4E
:100230002320F4FE232204FE232404FEB75700806B
:100240001386072CB75700809385072CB75700807B
:100250001385072CEFF0DFF013860188B757008075
:100260009385072CB75700801385072CEFF05FEFBD
:100270009385018913850188EFF09FF493850190A0
:1002800013850189EFF0DFF3930704FE93850700E0
:1002900013051000EF401055130000008320C1012A
:1002A000032481011301010267800000130101FF93
:1002B0002326810013040101130000000324C10060
:1002C0001301010167800000130101FD2326810253
:1002D00013040103232EA4FCF32740F12326F4FE8C
:1002E0008327C4FE2324F4FE370700408327C4FD80
:1002F00093D75700832684FE93965600B386F60064
:10030000B717000093870780B387F60093972700FD
:10031000B307F70083A707002322F4FE8327C4FD59
:1003200093F7F70113071000B317F70093C7F7FF10
:10033000032744FEB377F7002322F4FE370700407B
:100340008327C4FD93D75700832684FE93965600D7
:10035000B386F600B717000093870780B387F600CF
:1003600093972700B307F700032744FE23A0E70075
:10037000130000000324C102130101036780000081
:10038000130101FE232E810013040102F32740F123
:100390002326F4FE8327C4FE2324F4FE37070040FF
:1003A000832784FE938707209397C700B307F7003E
:1003B00083A74700138507000324C101130101022D
:1003C00067800000130101FD23268102130401034D
:1003D000232EA4FCF32740F12326F4FE8327C4FE3A
:1003E0002324F4FE37070040832784FE93870720E9
:1003F0009397C700B307F7000327C4FD23A2E700C4
:10040000130000000324C1021301010367800000F0
:10041000130101FE232E1100232C8100130401027D
:1004200093070008F3B747302326F4FEEF409051BE
:1004300037070044B7C70000B307F70003A8C7FF9A
:1004400083A787FF83A5018803A641883705004459
:10045000732740F12324E4FE832884FEB386B7008B
:10046000138306003333F3003307C800B307E300F8
:10047000138707009387060013080700371700004B
:10048000130707803387E800131737003307E500A9
:100490002320F7002322070193070008F3A7473022
:1004A0002322F4FE130000008320C10103248101F4
:1004B0001301010267800000130101FE232E1100C9
:1004C000232C810013040102EFF09FEB2326A4FEEE
:1004D000A30504FEB75700800327C4FE13172700A7
:1004E0009387072CB307F70083A70700E78007006F
:1004F00093070500A305F4FE0325C4FEEFF09FEC6F
:100500000347B4FE930710006316F7000325C4FEEB
:10051000EFF09FDB130000008320C1010324810161
:100520001301010267800000130101FF232611005F
:100530002324810013040101EF00C011B707004418
:1005400023A00700130000008320C10003248100C2
:100550001301010167800000130101FB2326110430
:100560002324810413040105232EA4FA232CB4FAB6
:100570008327C4FB63D207020327C4FBB7070080AD
:1005800093C7F7FF3377F7009307B0006316F700C0
:10059000EFF09FF26F00800A8327C4FB63D207024B
:1005A0000327C4FBB707008093C7F7FF3377F70033
:1005B000930770006316F700EFF09FE56F000008E7
:1005C0008327C4FB63D207020327C4FBB70700805D
:1005D00093C7F7FF3377F700930730006316F700F0
:1005E000EFF09FF46F008005F32740342326F4FEDC
:1005F0008327C4FE2324F4FEF32730342322F4FEA1
:10060000832744FE2320F4FEF3275030232EF4FCEE
:100610008327C4FD232CF4FCF3270034232AF4FCA5
:10062000832744FD2328F4FCF32700302326F4FC21
:100630008327C4FC2324F4FC73001000832784FB6D
:10064000138507008320C1040324810413010105DD
:1006500067800000130101FF23261100232481007D
:10066000130401011305A000EF004040130101FF36
:10067000232681001304010193070000138507005E
:100680000324C1001301010167800000130101FF71
:10069000232681001304010193070000138507003E
:1006A0000324C1001301010167800000130101FF51
:1006B000232681001304010193070000138507001E
:1006C0000324C1001301010167800000130101FF31
:1006D00023268100130401019307000013850700FE
:1006E0000324C1001301010167800000130101FF11
:1006F00023268100130401019307000013850700DE
:100700000324C1001301010167800000130101FFF0
:1007100023268100130401019307000013850700BD
:100720000324C1001301010167800000130101FFD0
:10073000232681001304010193070000138507009D
:100740000324C1001301010167800000130101FFB0
:10075000232681001304010193070000138507007D
:100760000324C1001301010167800000130101FF90
:10077000232681001304010193070000138507005D
:100780000324C1001301010167800000130101FF70
:10079000232681001304010193070000138507003D
:1007A0000324C1001301010167800000130101FF50
:1007B000232681001304010193070000138507001D
:1007C0000324C1001301010167800000130101FF30
:1007D00023268100130401019307000013850700FD
:1007E0000324C1001301010167800000130101FF10
:1007F00023268100130401019307000013850700DD
:100800000324C1001301010167800000130101FFEF
:1008100023268100130401019307000013850700BC
:100820000324C1001301010167800000130101FFCF
:10083000232681001304010193070000138507009C
:100840000324C1001301010167800000130101FFAF
:10085000232681001304010193070000138507007C
:100860000324C1001301010167800000130101FF8F
:10087000232681001304010193070000138507005C
:100880000324C1001301010167800000130101FF6F
:10089000232681001304010193070000138507003C
:1008A0000324C1001301010167800000130101FF4F
:1008B000232681001304010193070000138507001C
:1008C0000324C1001301010167800000130101FF2F
:1008D00023268100130401019307000013850700FC
:1008E0000324C1001301010167800000130101FF0F
:1008F00023268100130401019307000013850700DC
:100900000324C1001301010167800000130101FFEE
:1009100023268100130401019307000013850700BB
:100920000324C1001301010167800000130101FFCE
:10093000232681001304010193070000138507009B
:100940000324C1001301010167800000130101FFAE
:10095000232681001304010193070000138507007B
:100960000324C1001301010167800000130101FF8E
:10097000232681001304010193070000138507005B
:100980000324C1001301010167800000130101FF6E
:10099000232681001304010193070000138507003B
:1009A0000324C1001301010167800000130101FF4E
:1009B000232681001304010193070000138507001B
:1009C0000324C1001301010167800000130101FF2E
:1009D00023268100130401019307000013850700FB
:1009E0000324C1001301010167800000130101FF0E
:1009F00023268100130401019307000013850700DB
:100A00000324C1001301010167800000130101FFED
:100A100023268100130401019307000013850700BA
:100A20000324C1001301010167800000130101FFCD
:100A3000232681001304010193070000138507009A
:100A40000324C1001301010167800000130101FFAD
:100A5000232681001304010193070000138507007A
:100A60000324C1001301010167800000130101FE8E
:100A7000232E8100130401022326A4FE6F00000030
:100A80002320B50067800000032505006780000073
:100A9000138E0600331EBE00337ECE0003230500F6
:100AA0009303060093C3F3FF337373003363C301EF
:100AB0002320650067800000032505003375C5000D
:100AC0003355B500678000002310B5006780000033
:100AD0000315050067800000138E0600331EBE005C
:100AE000337ECE00031305009303060093C3F3FF88
:100AF000337373003363C301231065006780000004
:100B0000031505003375C5003355B5006780000037
:100B10002300B50067800000030505006780000022
:100B2000138E0600331EBE00337ECE000303050085
:100B30009303060093C3F3FF337373003363C3015E
:100B40002300650067800000030505003375C500BC
:100B50003355B50067800000130101FD2326110203
:100B60002324810213040103232EA4FC232CB4FCB0
:100B700093070600231BF4FC8327C4FD6384070E40
:100B8000832784FD6380070E1306C00493050000CD
:100B90000325C4FDEF4000638327C4FD032784FDC4
:100BA00023A0E700035764FD9307000263EEE7000C
:100BB000835764FD638A07008327C4FD035764FDE0
:100BC0002392E7046F0000018327C4FD1307100080
:100BD0002392E7048327C4FD83A707009306000040
:100BE000130610009305000013850700EFF05FF374
:100BF0008327C4FD83A7070093874702930500005E
:100C000013850700EFF0DFF08327C4FD83A70700FB
:100C10009387C7019305300013850700EFF05FEF5E
:100C20008327C4FD83A70700938747009305F00F30
:100C300013850700EFF0DFED8327C4FD83A70700CE
:100C4000938787019305000013850700EFF05FECA1
:100C50008327C4FD83A70700930530001385070091
:100C6000EFF01FEB8327C4FD83A70700938747029C
:100C70009305100013850700EFF09FE98327C4FD5B
:100C800083A707009387470213850700EFF0DFE88B
:100C900093070500A307F4FE8327C4FD83A707007D
:100CA0009387070213850700EFF01FE793070500FE
:100CB000A307F4FE130000008320C1020324810275
:100CC0001301010367800000130101FE232E1100B0
:100CD000232C8100130401022326A4FE8327C4FED3
:100CE000638207088327C4FE83A7070093060000DA
:100CF000130610009305000013850700EFF05FE274
:100D00008327C4FE23A407048327C4FE83A7070008
:100D10009387C7019305300013850700EFF05FDF6D
:100D20008327C4FE83A70700938747009305F00F2E
:100D300013850700EFF0DFDD8327C4FE83A70700DC
:100D4000938787019305000013850700EFF05FDCB0
:100D50008327C4FE83A7070093053000138507008F
:100D6000EFF01FDB130000008320C1010324810189
:100D70001301010267800000130101FD2326110207
:100D80002324810213040103232EA4FC232CB4FC8E
:100D9000232604FE8327C4FD6386070A032784FDF8
:100DA0009307700063E0E70A8327C4FD83A7070069
:100DB000130620009305100013850700EFF0DFD81D
:100DC00093070500638007088327C4FD83A70700F6
:100DD000938707021306000193054000138507005F
:100DE000EFF09FD6930705001387070093071000C5
:100DF0006316F7000325C4FDEF00C0218327C4FD5F
:100E000083A707009387470213850700EFF0DFD021
:100E10009307050093860700832784FD13071000BE
:100E2000B317F700B3E7F6002326F4FE8327C4FDCB
:100E300083A70700938747028325C4FE1385070015
:100E4000EFF01FCD130000008320C10203248102B4
:100E50001301010367800000130101FD2326110225
:100E60002324810213040103232EA4FC232CB4FCAD
:100E7000232604FE8327C4FD6388070A032784FD15
:100E80009307700063E2E70A8327C4FD83A7070086
:100E9000130620009305100013850700EFF0DFCA4A
:100EA00093070500638207088327C4FD83A7070013
:100EB000938707021306000193054000138507007E
:100EC000EFF09FC8930705001387070093071000F2
:100ED0006316F7000325C4FDEF00C0138327C4FD8C
:100EE00083A707009387470213850700EFF0DFC24F
:100EF0009307050093860700832784FD13071000DE
:100F0000B317F70093C7F7FFB3F7F6002326F4FEF5
:100F10008327C4FD83A70700938747028325C4FE68
:100F200013850700EFF0DFBE130000008320C1022D
:100F3000032481021301010367800000130101FDF6
:100F4000232611022324810213040103232EA4FC6F
:100F5000232CB4FC232604FE8327C4FD6380070AE8
:100F60008327C4FD83A70700130620009305100004
:100F700013850700EFF05FBD930705006380070846
:100F80008327C4FD83A707009387C701930530001B
:100F900013850700EFF0DFB78327C4FD83A70700A1
:100FA00093878702832584FD13850700EFF05FADEB
:100FB000130000008327C4FD83A70700938707025F
:100FC000130620009305100013850700EFF0DFB72C
:100FD000930705001387070093071000E31CF7FC35
:100FE0008327C4FD83A70700938787001385070025
:100FF000EFF09FA9930705002326F4FE8327C4FE84
:10100000138507008320C102032481021301010319
:1010100067800000130101FE232E1100232C8100A4
:10102000130401022326A4FE8327C4FE83A707001E
:1010300093060000130610009305000013850700B7
:10104000EFF01FAE8327C4FE83A707009387C70175
:101050009305300013850700EFF09FAB8327C4FE94
:1010600083A70700938747009305F00F13850700B8
:10107000EFF01FAA8327C4FE83A707009306100082
:10108000130610009305000013850700EFF05FA919
:10109000130000008320C101032481011301010218
:1010A00067800000130101FD232611022324810221
:1010B00013040103232EA4FC232CB4FC232AC4FC18
:1010C000A30704FE832784FD2324F4FE8327C4FDA5
:1010D000032784FD23A0E7008327C4FD032744FDE5
:1010E00023A2E700A30704FE832784FD2324F4FE44
:1010F0006F00800293050000032584FEEFF05FA1DE
:10110000832784FE938747002324F4FE8347F4FE5D
:1011100093871700A307F4FE0347F4FE9307F0013B
:10112000E3FAE7FC8327C4FD83A7470013071000F9
:101130006386E70263820706130720006390E70CCB
:101140008327C4FD83A70700938707089305F0FF53
:1011500013850700EFF0DF926F00800A8327C4FD3C
:1011600083A7070013870708B70701009385F7FFD8
:1011700013050700EFF05F958327C4FD83A70700E1
:1011800013874708B70701009385F7FF130507008A
:10119000EFF09F936F00C0068327C4FD83A707006D
:1011A000938707089305F00F13850700EFF05F960C
:1011B0008327C4FD83A70700938747089305F00F93
:1011C00013850700EFF0DF948327C4FD83A7070092
:1011D000938787089305F00F13850700EFF05F935F
:1011E0008327C4FD83A707009387C7089305F00FE3
:1011F00013850700EFF0DF916F00800013000000FF
:10120000130000008320C1020324810213010103A3
:1012100067800000130101FD2326110223248102AF
:1012200013040103232EA4FC232CB4FC232AC4FCA6
:10123000032784FD9307F00163E8E7028327C4FDD9
:1012400083A707002326F4FE832784FD93972700B6
:101250000327C4FEB307F7002326F4FE832544FDCD
:101260000325C4FEEFF0DF81130000008320C102DC
:10127000032481021301010367800000130101FEB2
:10128000232E1100232C8100130401022326A4FE27
:101290002324B4FE8327C4FE83A74700130710004E
:1012A0006386E702638C0706130720006390E7104C
:1012B0008327C4FE83A707009387070A832584FE3C
:1012C00013850700EFF0CFFB6F00800E8327C4FE6D
:1012D00083A707009387070A032784FE13170701D4
:1012E000135707019305070013850700EFF0CFFDA3
:1012F0008327C4FE83A707001387470A832784FE3A
:1013000093D707019397070193D7070193850700A8
:1013100013050700EFF04FFB6F0080098327C4FE21
:1013200083A707009387070A032784FE1377F70F25
:101330009305070013850700EFF08FFD8327C4FE98
:1013400083A707001387470A832784FE93D7870064
:1013500093F7F70F9385070013050700EFF04FFB96
:101360008327C4FE83A707001387870A832784FE89
:1013700093D7070193F7F70F93850700130507002D
:10138000EFF00FF98327C4FE83A707001387C70A6E
:10139000832784FE93D7870193F7F70F9385070080
:1013A00013050700EFF0CFF66F0080001300000078
:1013B000130000008320C1010324810113010102F5
:1013C00067800000130101FD2326110223248102FE
:1013D00013040103232EA4FC232604FE8327C4FD4B
:1013E00083A74700130710006386E702638007089E
:1013F000130720006394E7128327C4FD83A7070027
:101400009387070A13850700EFF00FE82326A4FE51
:101410006F0000118327C4FD83A707009387070A85
:1014200013850700EFF0CFEA930705001387070045
:101430008327C4FEB3E7E7002326F4FE8327C4FD19
:1014400083A707009387470A13850700EFF04FE84B
:101450009307050093970701138707008327C4FEAE
:10146000B3E7E7002326F4FE6F00800B8327C4FD5B
:1014700083A707009387070A13850700EFF04FE55E
:1014800093070500138707008327C4FEB3E7E7002F
:101490002326F4FE8327C4FD83A707009387470A0A
:1014A00013850700EFF0CFE29307050093978700BD
:1014B000138707008327C4FEB3E7E7002326F4FE63
:1014C0008327C4FD83A707009387870A1385070036
:1014D000EFF00FE0930705009397070113870700CC
:1014E0008327C4FEB3E7E7002326F4FE8327C4FD69
:1014F00083A707009387C70A13850700EFF04FDD26
:101500009307050093978701138707008327C4FE7D
:10151000B3E7E7002326F4FE6F008000130000000D
:101520008327C4FE138507008320C10203248102A0
:101530001301010367800000130101FD232611023E
:101540002324810213040103232EA4FC232CB4FCC6
:1015500093070600A30BF4FC8327C4FD83A7470071
:10156000130710006386E708638E07121307200035
:101570006394E71E8327C4FD83A707009387070AA8
:1015800013850700EFF04FD02326A4FE834774FD98
:1015900063940702832784FD13071000B317F70035
:1015A00093C7F7FF138707008327C4FEB3F7E7004D
:1015B0002326F4FE6F000002832784FD130710002A
:1015C000B317F700138707008327C4FEB3E7E700CC
:1015D0002326F4FE8327C4FD83A707009387070A09
:1015E0008325C4FE13850700EFF08FC96F00001735
:1015F0008327C4FD03A70700832784FD93D74700F3
:1016000093972700B307F7009387070A2322F4FE76
:10161000032544FEEFF0CFCB930705002315F4FE1E
:10162000834774FD63900704832784FD93F7F700D5
:1016300013071000B317F7009397070193D70741DB
:1016400093C7F7FF13970701135707418317A4FEAA
:10165000B377F7009397070193D707412315F4FE5B
:101660006F000003832784FD93F7F7001307100032
:10167000B317F70013970701135707418317A4FE09
:10168000B367F7009397070193D707412315F4FE3B
:101690008357A4FE93850700032544FEEFF0CFC2D5
:1016A0006F00C00B8327C4FD03A70700832784FDB9
:1016B00093D7370093972700B307F7009387070A5C
:1016C0002320F4FE032504FEEFF00FC59307050069
:1016D000A304F4FE834774FD63900704832784FD0D
:1016E00093F7770013071000B317F700939787015C
:1016F00093D7874193C7F7FF139787011357874104
:10170000830794FEB377F7009397870193D78741B8
:10171000A304F4FE6F000003832784FD93F7770092
:1017200013071000B317F70013978701135787416A
:10173000830794FEB367F7009397870193D7874198
:10174000A304F4FE834794FE93850700032504FE5B
:10175000EFF00FBC6F0080001300000013000000CA
:101760008320C1020324810213010103678000006A
:10177000130101FD23261102232481021304010316
:10178000232EA4FC232CB4FCA30704FE6F0040030B
:101790008347F4FE9395070193D50541832784FD84
:1017A0001307F0FF93060014130600000325C4FD81
:1017B000EF2090618347F4FE93871700A307F4FEA0
:1017C0000347F4FE9307F00EE3F4E7FC832784FD60
:1017D000130700009306000F130600009305000591
:1017E0000325C4FDEF20505E832784FD130700000E
:1017F0009306000F130600009305000A0325C4FD9D
:10180000EF20905C832784FD130700009306000FF0
:1018100013060005930500000325C4FDEF20906E1C
:10182000832784FD130700009306000F1306000AA8
:10183000930500000325C4FDEF20D06C13000000C9
:101840008320C10203248102130101036780000089
:10185000130101FC232E1102232C81021304010425
:101860002326A4FC2324B4FC832584FC0325C4FC88
:10187000EFF01FF093071000A303F4FEA30704FE8C
:10188000232404FEB757008003A7872A232EE4FCF5
:101890001387872A032747002320E4FE9387872A9C
:1018A00083C787002302F4FE6F00C012832784FEE3
:1018B00093F7F70F93F7170093F7F70F9387170036
:1018C000A303F4FE034774FE930710006314F706A6
:1018D000034774FE9307C4FD9306070013860700B1
:1018E000832584FC0325C4FCEF0040119307050009
:1018F000130704FFB307F700130780052386E7FEED
:10190000034774FE9307C4FD832684FC1306070077
:10191000938507000325C4FCEF10003093070500F2
:10192000A307F4FE832784FE938717002324F4FE85
:101930006F004008232C04FC6F000001832784FD06
:1019400093871700232CF4FC032784FD9307E00002
:10195000E3F6E7FE034774FE9307C4FD9306070012
:1019600013860700832584FC0325C4FCEF00100FB9
:1019700093070500130704FFB307F7001307F004EC
:101980002386E7FE034774FE9307C4FD832684FC89
:1019900013060700938507000325C4FCEF10C0273A
:1019A00093070500A307F4FE832784FE938717009F
:1019B0002324F4FE8347F4FE639E0700032784FE7E
:1019C0009307800063F8E700832584FC0325C4FCAB
:1019D000EF10001C032784FE9307800063E6E700F6
:1019E0008347F4FEE38407EC130000008320C10367
:1019F000032481031301010467800000130101FC2B
:101A0000232E1102232C8102130401042326A4FC9B
:101A10002324B4FC2322C4FC93870600A301F4FC16
:101A2000A30704FE6F00900013060004832584FCC6
:101A30000325C4FCEF10507C9307050093978701A2
:101A400093D7874163D4077E130794FD9306A4FDC3
:101A50009307C4FD13860700832584FC0325C4FC7B
:101A6000EF20800C0355C4FD1307000F9306000000
:101A7000B7170000138687ED93056009EF10C009C2
:101A8000930705009397070193D70701231EF4FCE2
:101A90000355A4FD1307001493060000B7170000B8
:101AA000138607FA93052008EF1000079307050037
:101AB0009397070193D70701231DF4FC0357C4FD37
:101AC0009307F00463ECE70A0357A4FD9307F004BF
:101AD00063E6E70A832744FC0387070093070002B5
:101AE000631EF708930740012316F4FE9307400195
:101AF0002315F4FE9307C0032314F4FE9307C003D9
:101B00002313F4FE9307C0032312F4FE930740014E
:101B10002311F4FE930740012310F4FE9307C00342
:101B2000231FF4FC8315C4FE0316A4FE831684FE53
:101B3000031764FE032884FCB7070100938707801E
:101B40000325C4FCEF300026831544FE031624FE53
:101B5000831604FE0317E4FD032884FCB707010085
:101B6000938707800325C4FCEF30C0239307100040
:101B7000A307F4FE930700006F00006D0357C4FD38
:101B80009307F00963E4E70C0357C4FD93070005CE
:101B900063FEE70A0357A4FD9307F00463E8E70A2E
:101BA000832744FC938717000387070093070002ED
:101BB000631EF708930740062316F4FE93074001BF
:101BC0002315F4FE9307C0082314F4FE9307C00303
:101BD0002313F4FE9307C0082312F4FE9307400179
:101BE0002311F4FE930740062310F4FE9307C0036D
:101BF000231FF4FC8315C4FE0316A4FE831684FE83
:101C0000031764FE032884FCB7070100938707804D
:101C10000325C4FCEF300019831544FE031624FE8F
:101C2000831604FE0317E4FD032884FCB7070100B4
:101C3000938707800325C4FCEF30C016930710007C
:101C4000A307F4FE930710006F0000600357C4FD64
:101C50009307F00E63E4E70C0357C4FD9307000AF3
:101C600063FEE70A0357A4FD9307F00463E8E70A5D
:101C7000832744FC9387270003870700930700020C
:101C8000631EF7089307400B2316F4FE93074001E9
:101C90002315F4FE9307C00D2314F4FE9307C0032D
:101CA0002313F4FE9307C00D2312F4FE93074001A3
:101CB0002311F4FE9307400B2310F4FE9307C00397
:101CC000231FF4FC8315C4FE0316A4FE831684FEB2
:101CD000031764FE032884FCB7070100938707807D
:101CE0000325C4FCEF30000C831544FE031624FECC
:101CF000831604FE0317E4FD032884FCB7070100E4
:101D0000938707800325C4FCEF30C00993071000B8
:101D1000A307F4FE930720006F0000530357C4FD90
:101D20009307F00463E4E70C0357A4FD9307000551
:101D300063FEE70A0357A4FD9307F00963E8E70A87
:101D4000832744FC9387370003870700930700022B
:101D5000631EF708930740012316F4FE930740061D
:101D60002315F4FE9307C0032314F4FE9307C00861
:101D70002313F4FE9307C0032312F4FE93074006D7
:101D80002311F4FE930740012310F4FE9307C008CB
:101D9000231FF4FC8315C4FE0316A4FE831684FEE1
:101DA000031764FE032884FCB707010093870780AC
:101DB0000325C4FCEF20107F831544FE031624FE88
:101DC000831604FE0317E4FD032884FCB707010013
:101DD000938707800325C4FCEF20D07C9307100075
:101DE000A307F4FE930730006F0000460357C4FDBD
:101DF0009307F00963EAE70C0357C4FD9307000556
:101E000063F4E70C0357A4FD9307F00963EEE70AB8
:101E10000357A4FD9307000563F8E70A832744FCF2
:101E2000938747000387070093070002631EF708A4
:101E3000930740062316F4FE930740062315F4FE8D
:101E40009307C0082314F4FE9307C0082313F4FE7D
:101E50009307C0082312F4FE930740062311F4FEF3
:101E6000930740062310F4FE9307C008231FF4FCD9
:101E70008315C4FE0316A4FE831684FE031764FEB6
:101E8000032884FCB7070100938707800325C4FC5F
:101E9000EF205071831544FE031624FE831604FEC2
:101EA0000317E4FD032884FCB7070100938707802C
:101EB0000325C4FCEF20106F93071000A307F4FE66
:101EC000930740006F0040380357C4FD9307F00E9E
:101ED00063EAE70C0357C4FD9307000A63F4E70CB9
:101EE0000357A4FD9307000563FEE70A0357A4FD0B
:101EF0009307F00963E8E70A832744FC93875700B8
:101F00000387070093070002631EF7089307400B3F
:101F10002316F4FE930740062315F4FE9307C00D25
:101F20002314F4FE9307C0082313F4FE9307C00D97
:101F30002312F4FE930740062311F4FE9307400B8F
:101F40002310F4FE9307C008231FF4FC8315C4FE7E
:101F50000316A4FE831684FE031764FE032884FC84
:101F6000B7070100938707800325C4FCEF20906327
:101F7000831544FE031624FE831604FE0317E4FDB6
:101F8000032884FCB7070100938707800325C4FC5E
:101F9000EF20506193071000A307F4FE9307500051
:101FA0006F00802A0357C4FD9307F00463E4E70C35
:101FB0000357A4FD9307F00E63EEE70A0357A4FD51
:101FC0009307000A63F8E70A832744FC93876700B6
:101FD0000387070093070002631EF7089307400179
:101FE0002316F4FE9307400B2315F4FE9307C0035A
:101FF0002314F4FE9307C00D2313F4FE9307C003CC
:102000002312F4FE9307400B2311F4FE93074001C3
:102010002310F4FE9307C00D231FF4FC8315C4FEA8
:102020000316A4FE831684FE031764FE032884FCB3
:10203000B7070100938707800325C4FCEF20905663
:10204000831544FE031624FE831604FE0317E4FDE5
:10205000032884FCB7070100938707800325C4FC8D
:10206000EF20505493071000A307F4FE930760007D
:102070006F00801D0357C4FD9307F00963EAE70C66
:102080000357C4FD9307000563F4E70C0357A4FD51
:102090009307F00E63EEE70A0357A4FD9307000AC7
:1020A00063F8E70A832744FC9387770003870700D8
:1020B00093070002631EF708930740062316F4FEF9
:1020C0009307400B2315F4FE9307C0082314F4FE76
:1020D0009307C00D2313F4FE9307C0082312F4FEE8
:1020E0009307400B2311F4FE930740062310F4FEE0
:1020F0009307C00D231FF4FC8315C4FE0316A4FE32
:10210000831684FE031764FE032884FCB7070100CE
:10211000938707800325C4FCEF20D048831544FE35
:10212000031624FE831604FE0317E4FD032884FC33
:10213000B7070100938707800325C4FCEF20904672
:1021400093071000A307F4FE930770006F00C00F01
:102150000357C4FD9307F00E63EAE70C0357C4FD71
:102160009307000A63F4E70C0357A4FD9307000AE2
:1021700063FEE70A0357A4FD9307F00E63E8E70A3E
:10218000832744FC93878700038707009307000297
:10219000631EF7089307400B2316F4FE9307400BCA
:1021A0002315F4FE9307C00D2314F4FE9307C00D0E
:1021B0002313F4FE9307C00D2312F4FE9307400B84
:1021C0002311F4FE9307400B2310F4FE9307C00D78
:1021D000231FF4FC8315C4FE0316A4FE831684FE9D
:1021E000031764FE032884FCB70701009387078068
:1021F0000325C4FCEF20103B831544FE031624FE88
:10220000831604FE0317E4FD032884FCB7070100CE
:10221000938707800325C4FCEF20D0389307100074
:10222000A307F4FE930780006F0000028347F4FECB
:1022300063980700034734FC930710006306F7FE1A
:10224000A30704FE9307F00F138507008320C10343
:10225000032481031301010467800000130101FCC2
:10226000232E1102232C8102130401042326A4FC33
:102270002324B4FC2322C4FC93870600A301F4FCAE
:10228000A30704FE6F00C02A232404FE6F0000038E
:10229000832784FE032744FCB307F7000387070066
:1022A000832784FE930604FFB387F6002384E7FEAA
:1022B000832784FE938717002324F4FE032784FEDC
:1022C00093078000E3D6E7FC8347F4FE130704FF7F
:1022D000B307F700038787FE93070002631CF7002C
:1022E0008347F4FE130704FFB307F7001307F00456
:1022F0002384E7FE034734FC930784FD930507001E
:1023000013850700EF108009930705001387070066
:10231000930710006318F7208347F4FE639A0702BF
:10232000930780022312F4FE930780022311F4FE28
:10233000831544FE031624FE832784FC1307F00153
:102340009306E0010325C4FCEF20005F6F00C0038B
:102350000347F4FE930710006318F7029307800702
:102360002312F4FE930780022311F4FE831544FE2A
:10237000031624FE832784FC1307F0019306E00173
:102380000325C4FCEF20405B0347F4FE93072000C5
:10239000631AF7029307800C2312F4FE930780025E
:1023A0002311F4FE831544FE031624FE832784FCC8
:1023B0001307F0019306E0010325C4FCEF20C0578A
:1023C0006F00C0030347F4FE930730006318F70261
:1023D000930780022312F4FE930780072311F4FE73
:1023E000831544FE031624FE832784FC1307F001A3
:1023F0009306E0010325C4FCEF2000540347F4FEDC
:1024000093074000631AF702930780072312F4FE34
:10241000930780072311F4FE831544FE031624FE60
:10242000832784FC1307F0019306E0010325C4FC15
:10243000EF2080506F00C0030347F4FE9307500065
:102440006318F7029307800C2312F4FE93078007AA
:102450002311F4FE831544FE031624FE832784FC17
:102460001307F0019306E0010325C4FCEF20C04CE4
:102470000347F4FE93076000631AF7029307800294
:102480002312F4FE9307800C2311F4FE831544FEFF
:10249000031624FE832784FC1307F0019306E00152
:1024A0000325C4FCEF2040496F00C0030347F4FE3E
:1024B000930770006318F702930780072312F4FE56
:1024C0009307800C2311F4FE831544FE031624FEAB
:1024D000832784FC1307F0019306E0010325C4FC65
:1024E000EF2080450347F4FE930780006318F7024E
:1024F0009307800C2312F4FE9307800C2311F4FE43
:10250000831544FE031624FE832784FC1307F00181
:102510009306E0010325C4FCEF2000428347F4FE4C
:102520006F00405E8347F4FE93871700A307F4FE15
:102530000347F4FE93078000E3F8E7D4A30304FE07
:102540006F00C02A230304FE6F000003834764FE6C
:10255000032744FC3307F700834764FE03070700A3
:10256000930604FFB387F6002384E7FE834764FEE7
:10257000938717002303F4FE034764FE930780004C
:10258000E3F6E7FC834774FE130704FFB307F70085
:10259000038787FE93070002631CF700834774FEDE
:1025A000130704FFB307F700130780052384E7FE32
:1025B000034734FC930784FD930507001385070048
:1025C000EF00D05D93070500138707009307100005
:1025D0006318F720834774FE639A0702930780020B
:1025E0002312F4FE930780022311F4FE831544FEA8
:1025F000031624FE832784FC1307F0019306E001F1
:102600000325C4FCEF2040336F00C003034774FE72
:10261000930710006318F702930780072312F4FE54
:10262000930780022311F4FE831544FE031624FE53
:10263000832784FC1307F0019306E0010325C4FC03
:10264000EF20802F034774FE93072000631AF702E0
:102650009307800C2312F4FE930780022311F4FEEB
:10266000831544FE031624FE832784FC1307F00120
:102670009306E0010325C4FCEF20002C6F00C0038B
:10268000034774FE930730006318F7029307800234
:102690002312F4FE930780072311F4FE831544FEF2
:1026A000031624FE832784FC1307F0019306E00140
:1026B0000325C4FCEF204028034774FE9307400025
:1026C000631AF702930780072312F4FE930780072B
:1026D0002311F4FE831544FE031624FE832784FC95
:1026E0001307F0019306E0010325C4FCEF20C0248A
:1026F0006F00C003034774FE930750006318F7028E
:102700009307800C2312F4FE930780072311F4FE35
:10271000831544FE031624FE832784FC1307F0016F
:102720009306E0010325C4FCEF200021034774FE5B
:1027300093076000631AF702930780022312F4FEE6
:102740009307800C2311F4FE831544FE031624FE28
:10275000832784FC1307F0019306E0010325C4FCE2
:10276000EF20801D6F00C003034774FE93077000C5
:102770006318F702930780072312F4FE9307800C77
:102780002311F4FE831544FE031624FE832784FCE4
:102790001307F0019306E0010325C4FCEF20C019E4
:1027A000034774FE930780006318F7029307800CB9
:1027B0002312F4FE9307800C2311F4FE831544FECC
:1027C000031624FE832784FC1307F0019306E0011F
:1027D0000325C4FCEF204016834774FE6F0080324F
:1027E000834774FE93871700A303F4FE034774FE28
:1027F00093078000E3F8E7D4832744FC03870700AE
:10280000930700026312F704832744FC1307F004C4
:102810002380E700930780022312F4FE93078002CF
:102820002311F4FE831544FE031624FE832784FC43
:102830001307F0019306E0010325C4FCEF20C00F4D
:10284000930700006F00002C832744FC9387270028
:1028500003870700930700026314F704832744FCEF
:10286000938727001307F0042380E7009307800C69
:102870002312F4FE930780022311F4FE831544FE15
:10288000031624FE832784FC1307F0019306E0015E
:102890000325C4FCEF20400A930720006F00802628
:1028A000832744FC93876700038707009307000290
:1028B0006314F704832744FC938767001307F0042D
:1028C0002380E700930780022312F4FE9307800C15
:1028D0002311F4FE831544FE031624FE832784FC93
:1028E0001307F0019306E0010325C4FCEF20C004A8
:1028F000930760006F000021832744FC93878700C3
:1029000003870700930700026314F704832744FC3E
:10291000938787001307F0042380E7009307800C58
:102920002312F4FE9307800C2311F4FE831544FE5A
:10293000031624FE832784FC1307F0019306E001AD
:102940000325C4FCEF10507F930780006F00801BAD
:10295000832744FC938747000387070093070002FF
:102960006314F704832744FC938747001307F0049C
:102970002380E700930780072312F4FE9307800764
:102980002311F4FE831544FE031624FE832784FCE2
:102990001307F0019306E0010325C4FCEF10D07982
:1029A000930740006F000016832744FC93871700AD
:1029B00003870700930700026314F704832744FC8E
:1029C000938717001307F0042380E700930780071D
:1029D0002312F4FE930780022311F4FE831544FEB4
:1029E000031624FE832784FC1307F0019306E001FD
:1029F0000325C4FCEF105074930710006F00801083
:102A0000832744FC9387370003870700930700025E
:102A10006314F704832744FC938737001307F004FB
:102A20002380E700930780022312F4FE93078007B8
:102A30002311F4FE831544FE031624FE832784FC31
:102A40001307F0019306E0010325C4FCEF10D06EDC
:102A5000930730006F00000B832744FC93875700D7
:102A600003870700930700026314F704832744FCDD
:102A7000938757001307F0042380E7009307800C27
:102A80002312F4FE930780072311F4FE831544FEFE
:102A9000031624FE832784FC1307F0019306E0014C
:102AA0000325C4FCEF105069930750006F008005A8
:102AB000832744FC9387770003870700930700026E
:102AC0006310F704832744FC938777001307F0040F
:102AD0002380E700930780072312F4FE9307800CFE
:102AE0002311F4FE831544FE031624FE832784FC81
:102AF0001307F0019306E0010325C4FCEF10D06337
:102B00009307F00F138507008320C103032481037B
:102B10001301010467800000130101FE232E8100D0
:102B200013040102930705002317F4FE93870500A1
:102B30002316F4FE930706002315F4FE9387060080
:102B40002314F4FE930707002313F4FE0357E4FE57
:102B50008357C4FE3307F740835664FE835784FED1
:102B6000B387F6403307F7028356A4FE8357C4FEAB
:102B7000B387F6403347F702835784FEB307F70065
:102B8000138507000324C1011301010267800000BF
:102B9000130101FE232E1100232C810013040102D6
:102BA0002326A4FE2324B4FE032884FE9307007E7C
:102BB0001307E00B9306E00B130620039305200395
:102BC0000325C4FEEF20001E032884FE9307007E29
:102BD0001307E00B93062003130620039305E00B75
:102BE0000325C4FEEF20001C832784FE1307007E0C
:102BF0009306400613068007930580070325C4FE4D
:102C0000EF109053130000008320C10103248101C1
:102C10001301010267800000130101FE232E110041
:102C2000232C8100130401022326A4FE2324B4FED6
:102C3000930706002320D4FEA303F4FE832784FE1B
:102C40000387070093078005631EF706832784FE2A
:102C50009387370003870700930780056314F706FF
:102C6000832784FE93876700038707009307800507
:102C7000631AF704032804FEB7070100938707804F
:102C80001307000F9306000F1306000093050000C2
:102C90000325C4FEEF200011032804FEB70701003E
:102CA000938707801307000F9306000013060000A8
:102CB0009305000F0325C4FEEF20C00E93071000FC
:102CC0006F00806C832784FE9387170003870700BB
:102CD00093078005631EF706832784FE93874700CA
:102CE00003870700930780056314F706832784FE94
:102CF000938777000387070093078005631AF7041B
:102D0000032804FEB7070100938707801307000F0D
:102D10009306000F13060000930500000325C4FE70
:102D2000EF204008032804FEB707010093870780BF
:102D30001307000F93060000130600009305000F11
:102D40000325C4FEEF200006930710006F00C06348
:102D5000832784FE93872700038707009307800556
:102D6000631EF706832784FE9387570003870700B7
:102D7000930780056314F706832784FE93878700F3
:102D80000387070093078005631AF704032804FEEE
:102D9000B7070100938707801307000F9306000F02
:102DA00013060000930500000325C4FEEF10907F7A
:102DB000032804FEB7070100938707801307000F5D
:102DC00093060000130600009305000F0325C4FEC0
:102DD000EF10507D930710006F00005B832784FE87
:102DE0000387070093078005631EF706832784FE89
:102DF0009387170003870700930780056314F7067E
:102E0000832784FE938727000387070093078005A5
:102E1000631AF704032804FEB707010093870780AD
:102E20001307000F9306000F130600009305000020
:102E30000325C4FEEF101077032804FEB707010036
:102E4000938707801307000F930600001306000006
:102E50009305000F0325C4FEEF10D07493071000F4
:102E60006F008052832784FE938737000387070013
:102E700093078005631EF706832784FE9387470028
:102E800003870700930780056314F706832784FEF2
:102E9000938757000387070093078005631AF70499
:102EA000032804FEB7070100938707801307000F6C
:102EB0009306000F13060000930500000325C4FECF
:102EC000EF10506E032804FEB707010093870780B8
:102ED0001307000F93060000130600009305000F70
:102EE0000325C4FEEF10106C930710006F00C0495B
:102EF000832784FE93876700038707009307800575
:102F0000631EF706832784FE9387770003870700F5
:102F1000930780056314F706832784FE9387870051
:102F20000387070093078005631AF704032804FE4C
:102F3000B7070100938707801307000F9306000F60
:102F400013060000930500000325C4FEEF109065F2
:102F5000032804FEB7070100938707801307000FBB
:102F600093060000130600009305000F0325C4FE1E
:102F7000EF105063930710006F000041832784FE19
:102F80000387070093078005631EF706832784FEE7
:102F90009387470003870700930780056314F706AC
:102FA000832784FE938787000387070093078005A4
:102FB000631AF704032804FEB7070100938707800C
:102FC0001307000F9306000F13060000930500007F
:102FD0000325C4FEEF10105D032804FEB7070100AF
:102FE000938707801307000F930600001306000065
:102FF0009305000F0325C4FEEF10D05A930710006D
:103000006F008038832784FE93872700038707009B
:1030100093078005631EF706832784FE9387470086
:1030200003870700930780056314F706832784FE50
:10303000938767000387070093078005631AF704E7
:10304000032804FEB7070100938707801307000FCA
:103050009306000F13060000930500000325C4FE2D
:10306000EF105054032804FEB70701009387078030
:103070001307000F93060000130600009305000FCE
:103080000325C4FEEF101052930710006F00C02FED
:10309000832784FE038707009307F0046318F7046F
:1030A000832784FE93873700038707009307F00484
:1030B000631EF702832784FE938767000387070058
:1030C0009307F0046314F702832704FE1307F0014B
:1030D0009306400613068007930580070325C4FE68
:1030E000EF109005930710006F00002A832784FEDD
:1030F00093871700038707009307F0046318F7040A
:10310000832784FE93874700038707009307F00413
:10311000631EF702832784FE9387770003870700E7
:103120009307F0046314F702832704FE1307F001EA
:103130009306400613068007930580070325C4FE07
:10314000EF10807F930710006F000024832784FE18
:1031500093872700038707009307F0046318F70499
:10316000832784FE93875700038707009307F004A3
:10317000631EF702832784FE938787000387070077
:103180009307F0046314F702832704FE1307F0018A
:103190009306400613068007930580070325C4FEA7
:1031A000EF108079930710006F00001E832784FEC4
:1031B000038707009307F0046318F704832784FE4E
:1031C00093871700038707009307F004631EF70235
:1031D000832784FE93872700038707009307F00463
:1031E0006314F702832704FE1307F00193064006D9
:1031F00013068007930580070325C4FEEF10C073F4
:10320000930710006F004018832784FE93873700D0
:10321000038707009307F0046318F704832784FEED
:1032200093874700038707009307F004631EF702A4
:10323000832784FE93875700038707009307F004D2
:103240006314F702832704FE1307F0019306400678
:1032500013068007930580070325C4FEEF10C06D99
:10326000930710006F004012832784FE9387670046
:10327000038707009307F0046318F704832784FE8D
:1032800093877700038707009307F004631EF70214
:10329000832784FE93878700038707009307F00442
:1032A0006314F702832704FE1307F0019306400618
:1032B00013068007930580070325C4FEEF10C0673F
:1032C000930710006F00400C832784FE03870700DC
:1032D0009307F0046318F704832784FE938747005D
:1032E000038707009307F004631EF702832784FE19
:1032F00093878700038707009307F0046314F7029E
:10330000832704FE1307F001930640061306800787
:10331000930580070325C4FEEF1000629307100099
:103320006F008006832784FE9387270003870700AA
:103330009307F0046318F704832784FE93874700FC
:10334000038707009307F004631EF702832784FEB8
:1033500093876700038707009307F0046314F7025D
:10336000832704FE1307F001930640061306800727
:10337000930580070325C4FEEF10005C930710003F
:103380006F00800093070000138507008320C101B0
:10339000032481011301010267800000130101FE73
:1033A000232E8100130401022326A4FE9387050027
:1033B000A305F4FE8327C4FE038707009307800557
:1033C000631AF7028327C4FE938737000387070039
:1033D000930780056310F7028327C4FE9387670075
:1033E00003870700930780056316F7009307100013
:1033F0006F00003F8327C4FE9387170003870700F1
:1034000093078005631AF7028327C4FE938747005A
:1034100003870700930780056310F7028327C4FE24
:103420009387770003870700930780056316F700EB
:10343000930710006F00C03A8327C4FE93872700CC
:103440000387070093078005631AF7028327C4FEEA
:103450009387570003870700930780056310F702DF
:103460008327C4FE9387870003870700930780059F
:103470006316F700930710006F0080368327C4FEA1
:103480000387070093078005631AF7028327C4FEAA
:103490009387170003870700930780056310F702DF
:1034A0008327C4FE938727000387070093078005BF
:1034B0006316F700930710006F0080328327C4FE65
:1034C000938737000387070093078005631AF70285
:1034D0008327C4FE9387470003870700930780056F
:1034E0006310F7028327C4FE938757000387070002
:1034F000930780056316F700930710006F00402EB6
:103500008327C4FE9387670003870700930780051E
:10351000631AF7028327C4FE9387770003870700A7
:10352000930780056310F7028327C4FE9387870003
:1035300003870700930780056316F70093071000C1
:103540006F00002A8327C4FE0387070093078005C6
:10355000631AF7028327C4FE938747000387070097
:10356000930780056310F7028327C4FE93878700C3
:1035700003870700930780056316F7009307100081
:103580006F0000268327C4FE938727000387070068
:1035900093078005631AF7028327C4FE93874700C9
:1035A00003870700930780056310F7028327C4FE93
:1035B0009387670003870700930780056316F7006A
:1035C000930710006F00C0218327C4FE0387070004
:1035D0009307F004631AF7028327C4FE938737002A
:1035E000038707009307F0046310F7028327C4FEE4
:1035F00093876700038707009307F0046316F700BB
:10360000930710006F00C01D8327C4FE9387170027
:10361000038707009307F004631AF7028327C4FEA9
:1036200093874700038707009307F0046310F702AE
:103630008327C4FE93877700038707009307F0046E
:103640006316F700930710006F0080198327C4FEEC
:1036500093872700038707009307F004631AF70294
:103660008327C4FE93875700038707009307F0045E
:103670006310F7028327C4FE938787000387070040
:103680009307F0046316F700930710006F004015CE
:103690008327C4FE038707009307F004631AF70229
:1036A0008327C4FE93871700038707009307F0045E
:1036B0006310F7028327C4FE938727000387070060
:1036C0009307F0046316F700930710006F00401192
:1036D0008327C4FE93873700038707009307F0040E
:1036E000631AF7028327C4FE938747000387070006
:1036F0009307F0046310F7028327C4FE93875700F3
:10370000038707009307F0046316F7009307100080
:103710006F00000D8327C4FE9387670003870700AF
:103720009307F004631AF7028327C4FE9387770098
:10373000038707009307F0046310F7028327C4FE92
:1037400093878700038707009307F0046316F70049
:10375000930710006F00C0088327C4FE038707008B
:103760009307F004631AF7028327C4FE9387470088
:10377000038707009307F0046310F7028327C4FE52
:1037800093878700038707009307F0046316F70009
:10379000930710006F00C0048327C4FE938727009F
:1037A000038707009307F004631AF7028327C4FE18
:1037B00093874700038707009307F0046310F7021D
:1037C0008327C4FE93876700038707009307F004ED
:1037D0006316F700930710006F0080009307000046
:1037E000138507000324C101130101026780000053
:1037F000130101FD23261102232481021304010376
:10380000232EA4FC232CB4FC9306200013063000C6
:10381000832584FD0325C4FDEF008028232404FEB6
:103820006F000001832784FE938717002324F4FE92
:10383000032784FEB71700009387E7FFE3F4E7FE52
:10384000A30704FE6F0040028347F4FE13860700BF
:10385000832584FD0325C4FDEF00001A8347F4FE91
:1038600093871700A307F4FE0347F4FE93070004B1
:10387000E3FCE7FC9306000013064000832584FD6B
:103880000325C4FDEF00C0219306100013060004B9
:10389000832584FD0325C4FDEF008020130600046A
:1038A000832584FD0325C4FDEF0000159306100059
:1038B0001306A000832584FD0325C4FDEF00401EF0
:1038C0009306000613060002832584FD0325C4FD2C
:1038D000EF00001D9306200013061002832584FDCF
:1038E0000325C4FDEF00C01B9306400A1306100415
:1038F000832584FD0325C4FDEF00801A9306600034
:1039000013066005832584FD0325C4FDEF004019DF
:10391000930610001306A004832584FD0325C4FD2F
:10392000EF000018930610001306B004832584FDF1
:103930000325C4FDEF00C016930600001306B00473
:10394000832584FD0325C4FDEF0080159306000048
:1039500013068005832584FD0325C4FDEF00401474
:103960009306F00F1306B000832584FD0325C4FDE4
:10397000EF0000139306500013069000832584FD8A
:103980000325C4FDEF00C011130000008320C10215
:10399000032481021301010367800000130101FE6B
:1039A000232E1100232C8100130401022326A4FEE0
:1039B000938705002322C4FEA305F4FE930510009F
:1039C0000325C4FEEFD04FBB8347B4FE93850700A9
:1039D0000325C4FEEFD08FD6930510000325C4FE47
:1039E000EFD08FC7130000008320C10103248101A1
:1039F0001301010267800000130101FD232611025B
:103A00002324810213040103232EA4FC232CB4FCE1
:103A100093070600A30BF4FCA30704FE13060000A3
:103A200093055000032584FDEFD01FB193051000CE
:103A30000325C4FDEFD04FB4834774FD93E707F827
:103A400093F7F70F938507000325C4FDEFD00FCF41
:103A500093070500A307F4FE930500000325C4FDAA
:103A6000EFD0CFCD93070500A307F4FE9305100018
:103A70000325C4FDEFD04FBE130610009305500080
:103A8000032584FDEFD05FAB8347F4FE1385070069
:103A90008320C10203248102130101036780000017
:103AA000130101FE232E1100232C810013040102B7
:103AB0002326A4FE2324B4FE9307060013870600E2
:103AC000A303F4FE930707002303F4FE130600008C
:103AD00093055000032584FEEFD01FA6834774FE94
:103AE000032684FE938507000325C4FEEFF01FEB39
:103AF000834764FE032684FE938507000325C4FEE6
:103B0000EFF0DFE91306100093055000032584FE53
:103B1000EFD09FA2130000008320C1010324810184
:103B20001301010267800000130101FC232E110222
:103B3000232C8102232A910213040104232EA4FCC6
:103B4000232CB4FC232AC4FC2328D4FC2326E4FC25
:103B5000A30704FE6F0080038344F4FE1306700D78
:103B6000832584FD0325C4FDEFF01FE993070500BD
:103B700013870700930704FFB3879700238CE7FEA2
:103B80008347F4FE93871700A307F4FE0347F4FE70
:103B900093073000E3F2E7FC834784FE13970701A5
:103BA00013570701832744FD2390E700832744FD33
:103BB00083D707009397470013970701135707010F
:103BC000832744FD2390E700832744FD03D70700A4
:103BD000834794FE93D7470093F7F70F9397070116
:103BE00093D70701B367F70013970701135707012E
:103BF000832744FD2390E700834794FE93970701B2
:103C000093D7070193F7F70013970701135707019D
:103C1000832704FD2390E700832704FD83D7070053
:103C2000939787001397070113570701832704FD14
:103C30002390E700832704FD03D707008347A4FEF2
:103C40009397070193D70701B367F700139707010D
:103C500013570701832704FD2390E7000347B4FEB1
:103C60008327C4FC2380E7001306B004832584FD6A
:103C70000325C4FDEFF05FD89307050093F7070213
:103C8000638C07009306F00F1306B000832584FDB4
:103C90000325C4FDEFF0DFE0130000008320C10323
:103CA000032481038324410313010104678000007E
:103CB000130101FE232E1100232C810013040102A5
:103CC0002326A4FE93870500A305F4FE93050000B8
:103CD0000325C4FEEFD04F8A8347B4FE93850700C7
:103CE0000325C4FEEFD08FA5930500000325C4FE75
:103CF000EFD08F96130000008320C10103248101BF
:103D00001301010267800000130101FD2326110247
:103D10002324810213040103232EA4FC232CB4FCCE
:103D20001306000093056000032584FDEFD0DF80BB
:103D3000231704FE6F0000028357E4FE93970701E8
:103D400093D70701938717009397070193D707012C
:103D50002317F4FE8357E4FE139707011357070157
:103D6000B71700009387E7FFE3F8E7FC130610009E
:103D700093056000032584FDEFD00FFC231604FE9D
:103D80006F0000028357C4FE9397070193D7070182
:103D9000938717009397070193D707012316F4FE23
:103DA0008357C4FE1397070113570701B717000085
:103DB0009387E7FFE3F8E7FC032684FD9305F00E05
:103DC0000325C4FDEF00005E032684FD930530004B
:103DD0000325C4FDEF004063032684FD930500081E
:103DE0000325C4FDEF004062032684FD93052000F7
:103DF0000325C4FDEF004061032684FD9305F00C0C
:103E00000325C4FDEF00005A032684FD930500003E
:103E10000325C4FDEF00405F032684FD9305100CCD
:103E20000325C4FDEF00405E032684FD93050003D7
:103E30000325C4FDEF00405D032684FD9305D00EED
:103E40000325C4FDEF000056032684FD93054006BC
:103E50000325C4FDEF00405B032684FD930530007D
:103E60000325C4FDEF00405A032684FD930520017D
:103E70000325C4FDEF004059032684FD9305100877
:103E80000325C4FDEF004058032684FD9305800EF2
:103E90000325C4FDEF000051032684FD930550085F
:103EA0000325C4FDEF004056032684FD9305000062
:103EB0000325C4FDEF004055032684FD93058007CC
:103EC0000325C4FDEF004054032684FD9305B00C88
:103ED0000325C4FDEF00004D032684FD93059003E8
:103EE0000325C4FDEF004052032684FD9305C00264
:103EF0000325C4FDEF004051032684FD9305000017
:103F00000325C4FDEF004050032684FD93054003C4
:103F10000325C4FDEF00404F032684FD93052000D8
:103F20000325C4FDEF00404E032684FD9305700F6A
:103F30000325C4FDEF000047032684FD930500021E
:103F40000325C4FDEF00404C032684FD9305A00E1D
:103F50000325C4FDEF000045032684FD9305000002
:103F60000325C4FDEF00404A032684FD93050000AD
:103F70000325C4FDEF004049032684FD9305000C92
:103F80000325C4FDEF000042032684FD93053002A3
:103F90000325C4FDEF004047032684FD9305100C64
:103FA0000325C4FDEF000040032684FD93050001B6
:103FB0000325C4FDEF004045032684FD9305500C06
:103FC0000325C4FDEF00003E032684FD9305E003B6
:103FD0000325C4FDEF004043032684FD93058002C2
:103FE0000325C4FDEF004042032684FD9305700CB9
:103FF0000325C4FDEF00003B032684FD9305600804
:104000000325C4FDEF004040032684FD93056003B3
:104010000325C4FDEF000039032684FD93058004C9
:104020000325C4FDEF00403E032684FD9305A00355
:104030000325C4FDEF000037032684FD93055005DA
:104040000325C4FDEF00403C032684FD9305100BBF
:104050000325C4FDEF000035032684FD9305000011
:104060000325C4FDEF00403A032684FD930580013B
:104070000325C4FDEF004039032684FD9305600B42
:104080000325C4FDEF000032032684FD9305800064
:104090000325C4FDEF004037032684FD9305200867
:1040A0000325C4FDEF004036032684FD930570020E
:1040B0000325C4FDEF004035032684FD9305200F42
:1040C0000325C4FDEF00002E032684FD93050000A8
:1040D0000325C4FDEF004033032684FD93056002F1
:1040E0000325C4FDEF00002C032684FD930510007A
:1040F0000325C4FDEF004031032684FD9305000E27
:104100000325C4FDEF00002A032684FD9305F0007B
:104110000325C4FDEF00402F032684FD9305100303
:104120000325C4FDEF00402E032684FD9305B00255
:104130000325C4FDEF00402D032684FD9305C00038
:104140000325C4FDEF00402C032684FD9305E00009
:104150000325C4FDEF00402B032684FD930580005A
:104160000325C4FDEF00402A032684FD9305E004E7
:104170000325C4FDEF004029032684FD9305100F9D
:104180000325C4FDEF004028032684FD930570033A
:104190000325C4FDEF004027032684FD930570002E
:1041A0000325C4FDEF004026032684FD930500018E
:1041B0000325C4FDEF004025032684FD9305300050
:1041C0000325C4FDEF004024032684FD9305E00091
:1041D0000325C4FDEF004023032684FD93059000D2
:1041E0000325C4FDEF004022032684FD9305000053
:1041F0000325C4FDEF004021032684FD9305100E26
:104200000325C4FDEF00001A032684FD930500007A
:104210000325C4FDEF00401F032684FD9305E00045
:104220000325C4FDEF00401E032684FD93054001D5
:104230000325C4FDEF00401D032684FD93053000D7
:104240000325C4FDEF00401C032684FD93051001E7
:104250000325C4FDEF00401B032684FD9305700079
:104260000325C4FDEF00401A032684FD93051003C7
:104270000325C4FDEF004019032684FD9305100CAF
:104280000325C4FDEF004018032684FD9305800438
:104290000325C4FDEF004017032684FD930580002D
:1042A0000325C4FDEF004016032684FD9305F000AE
:1042B0000325C4FDEF004015032684FD9305C000CF
:1042C0000325C4FDEF004014032684FD930510036D
:1042D0000325C4FDEF004013032684FD930560030E
:1042E0000325C4FDEF004012032684FD9305F00072
:1042F0000325C4FDEF004011032684FD9305100142
:104300000325C4FDEF00000A231504FE6F00000220
:104310008357A4FE9397070193D70701938717004C
:104320009397070193D707012315F4FE8357A4FE43
:104330001397070113570701B71700009387E7FF8B
:10434000E3F8E7FC032684FD930590020325C4FDF2
:10435000EF004005231404FE6F000002835784FE23
:104360009397070193D70701938717009397070146
:1043700093D707012314F4FE835784FE1397070194
:1043800013570701B71700009387E7FFE3F8E7FC2F
:10439000130000008320C1020324810213010103E2
:1043A00067800000130101FE232E1100232C8100E1
:1043B000130401022326A4FE938705002322C4FED2
:1043C000A305F4FE1306000093054000032544FEF8
:1043D000EFD08F968347B4FE938507000325C4FE74
:1043E000EFF01F8D1306100093054000032544FED7
:1043F000EFD08F94130000008320C10103248101BA
:104400001301010267800000130101FE232E110039
:10441000232C8100130401022326A4FE93870500A8
:104420002322C4FEA305F4FE1306100093054000EA
:10443000032544FEEFD04F908347B4FE93850700D9
:104440000325C4FEEFF0DF86130000008320C101C6
:10445000032481011301010267800000130101FEA2
:10446000232E1100232C8100130401022326A4FE15
:104470002320F4FE938705002315F4FE930706001E
:104480002314F4FE938706002313F4FE930707001A
:104490002312F4FE032604FE9305A0020325C4FEA6
:1044A000EFF05FF08357A4FE93D78700939707013F
:1044B00093D7070193F7F70F032604FE93850700B0
:1044C0000325C4FEEFF05FF48357A4FE93F7F70FC4
:1044D000032604FE938507000325C4FEEFF0DFF2F8
:1044E000835764FE93D787009397070193D70701FB
:1044F00093F7F70F032604FE938507000325C4FEF8
:10450000EFF09FF0835764FE93F7F70F032604FE46
:10451000938507000325C4FEEFF01FEF032604FE7A
:104520009305B0020325C4FEEFF0DFE7835784FE56
:1045300093D787009397070193D7070193F7F70F56
:10454000032604FE938507000325C4FEEFF0DFEB8E
:10455000835784FE93F7F70F032604FE9385070025
:104560000325C4FEEFF05FEA835744FE93D787002C
:104570009397070193D7070193F7F70F032604FEDC
:10458000938507000325C4FEEFF01FE8835744FE20
:1045900093F7F70F032604FE938507000325C4FE57
:1045A000EFF09FE6032604FE9305C0020325C4FE38
:1045B000EFF05FDF130000008320C10103248101BD
:1045C0001301010267800000130101FD232611027F
:1045D0002324810213040103232EA4FC2328F4FCCA
:1045E00093870500231DF4FC93070600231CF4FCAD
:1045F00093870600231BF4FC93070700231AF4FC9F
:104600000317A4FD9307F00E63C4E70E031784FDA0
:104610009307F01363CEE70C031784FD831764FD43
:104620003307F7009307001463DEE700835784FD28
:1046300013070014B307F7409397070193D70701B7
:10464000231BF4FC8355A4FD035684FD8356A4FD6F
:10465000035784FD835764FDB307F7009397070161
:1046600093D707019387F7FF1397070113570701A4
:10467000832704FD0325C4FDEFF05FDE831744FDAF
:1046800093D787409397070193D70741A307F4FE79
:10469000835744FD2307F4FE1306100093054000E2
:1046A000032504FDEFC05FE96F0040028347F4FE7D
:1046B000938507000325C4FDEFF08FDF8347E4FEF9
:1046C000938507000325C4FDEFF08FDE831764FD9B
:1046D00013970701135707011307F7FF1317070174
:1046E00013570701231BE4FCE39207FC6F008000D3
:1046F000130000008320C10203248102130101037F
:1047000067800000130101FD23261102232481028A
:1047100013040103232EA4FC2328F4FC9387050033
:10472000231DF4FC93070600231CF4FC938706006A
:10473000231BF4FC93070700231AF4FC0317A4FDC2
:104740009307F00E63C4E70E031784FD9307F0137D
:1047500063CEE70C0317A4FD831764FD3307F7004E
:104760009307000F63DEE7008357A4FD1307000FD4
:10477000B307F7409397070193D70701231BF4FC76
:104780008355A4FD035684FD0357A4FD835764FDA0
:10479000B307F7009397070193D707019387F7FFB4
:1047A0009396070193D60601035784FD832704FDE2
:1047B0000325C4FDEFF09FCA831744FD93D78740BC
:1047C0009397070193D70741A307F4FE835744FD4E
:1047D0002307F4FE1306100093054000032504FD93
:1047E000EFC09FD56F0040028347F4FE938507001A
:1047F0000325C4FDEFF0CFCB8347E4FE938507008C
:104800000325C4FDEFF0CFCA831764FD139707019A
:10481000135707011307F7FF131707011357070172
:10482000231BE4FCE39207FC6F00800013000000F0
:104830008320C10203248102130101036780000069
:10484000130101FD23261102232481021304010315
:10485000232EA4FC938705002328E4FC231DF4FCED
:1048600093070600231CF4FC93870600231BF4FC2B
:104870008317A4FD63C8070A0317A4FD9307F00E6E
:1048800063C2E70A831784FD63CE0708031784FD1C
:104890009307F01363C8E708A30704FE835764FD7A
:1048A00093D787009397070193D70701A307F4FED7
:1048B000230704FE835764FD2307F4FE8355A4FDFC
:1048C000035684FD8357A4FD938717009396070131
:1048D00093D60601835784FD93871700139707012A
:1048E00013570701832704FD0325C4FDEFF01FB70D
:1048F0001306100093054000032504FDEFC0DFC33D
:104900008347F4FE938507000325C4FDEFF04FBAFB
:104910008347E4FE938507000325C4FDEFF04FB9FC
:104920006F008000130000008320C1020324810275
:104930001301010367800000130101FD232611020A
:104940002324810213040103232EA4FC2328F4FC56
:1049500093870500231DF4FC93070600231CF4FC39
:1049600093870600231BF4FC93070700231AF4FC2B
:10497000835764FD13071000B307F74093970701AF
:1049800093D707012317F4FE930710002316F4FEB4
:10499000835764FD13070000B307F7409397170090
:1049A0009397070193D707012315F4FE231404FE00
:1049B000835764FD2313F4FE035784FD835764FD7E
:1049C000B307F7009397070193D7070113960701E1
:1049D00013560641835644FD8317A4FD032704FDA7
:1049E000938507000325C4FDEFF09FE5035784FD81
:1049F000835764FDB307F7409397070193D70701E7
:104A00001396070113560641835644FD8317A4FDF0
:104A1000032704FD938507000325C4FDEFF05FE243
:104A20000357A4FD835764FDB307F700939707016D
:104A300093D707019397070193D70741835644FD06
:104A4000031684FD032704FD938507000325C4FD99
:104A5000EFF01FDF0357A4FD835764FDB307F74052
:104A60009397070193D707019397070193D70741BE
:104A7000835644FD031684FD032704FD9385070038
:104A80000325C4FDEFF0DFDB6F00C02F8317E4FECA
:104A900063C60704831764FE9397070193D7070142
:104AA0009387F7FF9397070193D707012313F4FE2A
:104AB0008357A4FE938727009397070193D7070195
:104AC0002315F4FE0357E4FE8357A4FEB307F70053
:104AD0009397070193D707012317F4FE831784FEEA
:104AE0009397070193D707019387170093970701BF
:104AF00093D707012314F4FE8357C4FE938727003E
:104B00009397070193D707012316F4FE0357E4FE9A
:104B10008357C4FEB307F7009397070193D70701A4
:104B20002317F4FE0357A4FD835784FEB307F70051
:104B30009397070193D707019395070193D50541F3
:104B4000035784FD835764FEB307F700939707016B
:104B500093D707019397070193D70741835644FDE5
:104B6000032704FD138607000325C4FDEFF05FCD86
:104B70000357A4FD835784FEB307F74093970701BB
:104B800093D707019395070193D50541035784FDFA
:104B9000835764FEB307F7009397070193D7070184
:104BA0009397070193D70741835644FD032704FDDC
:104BB000138607000325C4FDEFF09FC80357A4FD2B
:104BC000835784FEB307F7009397070193D7070134
:104BD0009395070193D50541035784FD835764FEE0
:104BE000B307F7409397070193D7070193970701FE
:104BF00093D70741835644FD032704FD138607001E
:104C00000325C4FDEFF0DFC30357A4FD835784FEE3
:104C1000B307F7409397070193D7070193950701CF
:104C200093D50541035784FD835764FEB307F740CE
:104C30009397070193D707019397070193D70741EC
:104C4000835644FD032704FD138607000325C4FD96
:104C5000EFF01FBF0357A4FD835764FEB307F700AF
:104C60009397070193D707019395070193D50541C2
:104C7000035784FD835784FEB307F700939707011A
:104C800093D707019397070193D70741835644FDB4
:104C9000032704FD138607000325C4FDEFF05FBA68
:104CA0000357A4FD835764FEB307F74093970701AA
:104CB00093D707019395070193D50541035784FDC9
:104CC000835784FEB307F7009397070193D7070133
:104CD0009397070193D70741835644FD032704FDAB
:104CE000138607000325C4FDEFF09FB50357A4FD0D
:104CF000835764FEB307F7009397070193D7070123
:104D00009395070193D50541035784FD835784FE8E
:104D1000B307F7409397070193D7070193970701CC
:104D200093D70741835644FD032704FD13860700EC
:104D30000325C4FDEFF0DFB00357A4FD835764FEE5
:104D4000B307F7409397070193D70701939507019E
:104D500093D50541035784FD835784FEB307F7407D
:104D60009397070193D707019397070193D70741BB
:104D7000835644FD032704FD138607000325C4FD65
:104D8000EFF01FAC031784FE831764FEE340F7D0F7
:104D9000130000008320C1020324810213010103D8
:104DA00067800000130101FB2326110423248104E2
:104DB000130401052326A4FC1385050093050600B2
:104DC000138606009306070013870700232E04FBB3
:104DD000930705002315F4FC938705002314F4FCC6
:104DE000930706002313F4FC938706002312F4FCB8
:104DF000930707002311F4FC031744FC831784FC7A
:104E00003307F7409357F74133C7E7003307F740BD
:104E1000831664FC8317A4FCB387F64093D6F7414E
:104E2000B3C7F600B387D740B3A7E70093F7F70FF0
:104E30002315F4FE8317A4FE638A07028357A4FC9C
:104E40002314F4FE835784FC2315F4FC835784FE5B
:104E50002314F4FC835764FC2313F4FE835744FCAF
:104E60002313F4FC835764FE2312F4FC0317A4FC01
:104E7000831764FC63DAE7028357A4FC2312F4FE71
:104E8000835764FC2315F4FC835744FE2313F4FC7E
:104E9000835784FC2311F4FE835744FC2314F4FC51
:104EA000835724FE2312F4FC035764FC8357A4FCAD
:104EB000B307F7409397070193D707012310F4FE38
:104EC000031744FC831784FCB307F74013D7F7415B
:104ED000B347F700B387E740231FF4FC831704FEB2
:104EE00013D7F701B307F70093D717402317F4FE42
:104EF000031784FC831744FC6358F70093071000E2
:104F00002316F4FE6F00000C9307F0FF2316F4FE47
:104F10006F00400B8317A4FE63820702835624FCB4
:104F20000316A4FC831784FC0327C4FB93850700A6
:104F30000325C4FCEFF0DF906F000002835624FCD1
:104F4000031684FC8317A4FC0327C4FB9385070086
:104F50000325C4FCEFF0DF8E0357E4FE8357E4FD26
:104F6000B307F7409397070193D707012317F4FE80
:104F70008317E4FE63DA0702035784FC8357C4FEF9
:104F8000B307F7009397070193D707012314F4FCA5
:104F90000357E4FE835704FEB307F7009397070116
:104FA00093D707012317F4FE8317A4FC93970701F7
:104FB00093D70701938717009397070193D70701AA
:104FC0002315F4FC0317A4FC831764FCE3D4E7F473
:104FD000130000008320C104032481041301010590
:104FE00067800000130101FE232E1100232C810095
:104FF0001304010223A6018E13062000B75500708A
:1050000013850189EFC00F8A93050000138501897C
:10501000EFC0CFA613060000930500001385018999
:10502000EFC08FD11306000093051000138501898E
:10503000EFC08FD0130650009305400013850189FF
:10504000EFC04F9D130610009305400013850189A2
:10505000EFC08FCE130650009305600013850189C1
:10506000EFC04F9B13061000930560001385018964
:10507000EFC08FCC130650009305500013850189B3
:10508000EFC04F9913061000930550001385018956
:10509000EFC08FCA13068000B76500701385018AC0
:1050A000EFB09FAB1385018AEFB01FC293850189D2
:1050B0001385018AEFE05FC5231704FE6F0000022D
:1050C0008357E4FE9397070193D70701938717004F
:1050D0009397070193D707012317F4FE8357E4FE44
:1050E00013970701135707019307E00FE3FAE7FC53
:1050F000938501891385018AEFE08FEF231604FE63
:105100006F0000028357C4FE9397070193D70701EE
:10511000938717009397070193D707012316F4FE8F
:105120008357C4FE13970701135707019307E00F36
:10513000E3FAE7FC938501891385018AEFC04FF1FB
:105140006F000000130101FE232E1100232C8100AB
:105150001304010283C78188138717009376F70F22
:105160002384D188130710036376F702138501891E
:10517000EFC04FA52326A4FE8327C4FE93C72700B4
:105180002326F4FE8325C4FE13850189EFC00F8F0B
:105190002384018883A7C18E1387A70023A6E18EED
:1051A00003A7C18E9307900063E4E70023A6018E56
:1051B000130000008320C1010324810113010102B7
:1051C000678000001303F00013070500637EC3022D
:1051D0009377F7006390070A63920508937606FFBA
:1051E0001376F600B386E6002320B7002322B7002B
:1051F0002324B7002326B70013070701E366D7FE71
:105200006314060067800000B306C340939626002F
:1052100097020000B38656006780C6002307B700D8
:10522000A306B7002306B700A305B7002305B70000
:10523000A304B7002304B700A303B7002303B700F8
:10524000A302B7002302B700A301B7002301B700F0
:10525000A300B7002300B7006780000093F5F50FA7
:1052600093968500B3E5D50093960501B3E5D50087
:105270006FF0DFF69396270097020000B386560082
:1052800093820000E78006FA93800200938707FF6D
:105290003307F7403306F600E378C3F66FF0DFF329
:1052A00068656C6C6F0000002020202020202020EA
:1052B00020000000313233343536373839000000F1
:1052C0006C0600808C060080AC060080CC06008056
:1052D000EC0600800C0700802C0700804C07008043
:1052E0006C0700808C070080AC070080CC07008032
:1052F000EC0700800C0800802C0800804C0800801F
:105300006C0800808C080080AC080080CC0800800D
:10531000EC0800800C0900802C0900804C090080FA
:105320006C0900808C090080AC090080CC090080E9
:10533000EC0900800C0A00802C0A00804C0A0080D6
:040000058000000077
:00000001FF
